{
  "contractName": "NFTCollection",
  "abi": [
    {
      "inputs": [],
      "stateMutability": "nonpayable",
      "type": "constructor"
    },
    {
      "anonymous": false,
      "inputs": [
        {
          "indexed": true,
          "internalType": "address",
          "name": "owner",
          "type": "address"
        },
        {
          "indexed": true,
          "internalType": "address",
          "name": "approved",
          "type": "address"
        },
        {
          "indexed": true,
          "internalType": "uint256",
          "name": "tokenId",
          "type": "uint256"
        }
      ],
      "name": "Approval",
      "type": "event"
    },
    {
      "anonymous": false,
      "inputs": [
        {
          "indexed": true,
          "internalType": "address",
          "name": "owner",
          "type": "address"
        },
        {
          "indexed": true,
          "internalType": "address",
          "name": "operator",
          "type": "address"
        },
        {
          "indexed": false,
          "internalType": "bool",
          "name": "approved",
          "type": "bool"
        }
      ],
      "name": "ApprovalForAll",
      "type": "event"
    },
    {
      "anonymous": false,
      "inputs": [
        {
          "indexed": true,
          "internalType": "address",
          "name": "from",
          "type": "address"
        },
        {
          "indexed": true,
          "internalType": "address",
          "name": "to",
          "type": "address"
        },
        {
          "indexed": true,
          "internalType": "uint256",
          "name": "tokenId",
          "type": "uint256"
        }
      ],
      "name": "Transfer",
      "type": "event"
    },
    {
      "inputs": [
        {
          "internalType": "address",
          "name": "to",
          "type": "address"
        },
        {
          "internalType": "uint256",
          "name": "tokenId",
          "type": "uint256"
        }
      ],
      "name": "approve",
      "outputs": [],
      "stateMutability": "nonpayable",
      "type": "function"
    },
    {
      "inputs": [
        {
          "internalType": "address",
          "name": "owner",
          "type": "address"
        }
      ],
      "name": "balanceOf",
      "outputs": [
        {
          "internalType": "uint256",
          "name": "",
          "type": "uint256"
        }
      ],
      "stateMutability": "view",
      "type": "function",
      "constant": true
    },
    {
      "inputs": [
        {
          "internalType": "uint256",
          "name": "tokenId",
          "type": "uint256"
        }
      ],
      "name": "getApproved",
      "outputs": [
        {
          "internalType": "address",
          "name": "",
          "type": "address"
        }
      ],
      "stateMutability": "view",
      "type": "function",
      "constant": true
    },
    {
      "inputs": [
        {
          "internalType": "address",
          "name": "owner",
          "type": "address"
        },
        {
          "internalType": "address",
          "name": "operator",
          "type": "address"
        }
      ],
      "name": "isApprovedForAll",
      "outputs": [
        {
          "internalType": "bool",
          "name": "",
          "type": "bool"
        }
      ],
      "stateMutability": "view",
      "type": "function",
      "constant": true
    },
    {
      "inputs": [],
      "name": "name",
      "outputs": [
        {
          "internalType": "string",
          "name": "",
          "type": "string"
        }
      ],
      "stateMutability": "view",
      "type": "function",
      "constant": true
    },
    {
      "inputs": [
        {
          "internalType": "uint256",
          "name": "tokenId",
          "type": "uint256"
        }
      ],
      "name": "ownerOf",
      "outputs": [
        {
          "internalType": "address",
          "name": "",
          "type": "address"
        }
      ],
      "stateMutability": "view",
      "type": "function",
      "constant": true
    },
    {
      "inputs": [
        {
          "internalType": "address",
          "name": "from",
          "type": "address"
        },
        {
          "internalType": "address",
          "name": "to",
          "type": "address"
        },
        {
          "internalType": "uint256",
          "name": "tokenId",
          "type": "uint256"
        }
      ],
      "name": "safeTransferFrom",
      "outputs": [],
      "stateMutability": "nonpayable",
      "type": "function"
    },
    {
      "inputs": [
        {
          "internalType": "address",
          "name": "from",
          "type": "address"
        },
        {
          "internalType": "address",
          "name": "to",
          "type": "address"
        },
        {
          "internalType": "uint256",
          "name": "tokenId",
          "type": "uint256"
        },
        {
          "internalType": "bytes",
          "name": "_data",
          "type": "bytes"
        }
      ],
      "name": "safeTransferFrom",
      "outputs": [],
      "stateMutability": "nonpayable",
      "type": "function"
    },
    {
      "inputs": [
        {
          "internalType": "address",
          "name": "operator",
          "type": "address"
        },
        {
          "internalType": "bool",
          "name": "approved",
          "type": "bool"
        }
      ],
      "name": "setApprovalForAll",
      "outputs": [],
      "stateMutability": "nonpayable",
      "type": "function"
    },
    {
      "inputs": [],
      "name": "symbol",
      "outputs": [
        {
          "internalType": "string",
          "name": "",
          "type": "string"
        }
      ],
      "stateMutability": "view",
      "type": "function",
      "constant": true
    },
    {
      "inputs": [
        {
          "internalType": "uint256",
          "name": "index",
          "type": "uint256"
        }
      ],
      "name": "tokenByIndex",
      "outputs": [
        {
          "internalType": "uint256",
          "name": "",
          "type": "uint256"
        }
      ],
      "stateMutability": "view",
      "type": "function",
      "constant": true
    },
    {
      "inputs": [
        {
          "internalType": "address",
          "name": "owner",
          "type": "address"
        },
        {
          "internalType": "uint256",
          "name": "index",
          "type": "uint256"
        }
      ],
      "name": "tokenOfOwnerByIndex",
      "outputs": [
        {
          "internalType": "uint256",
          "name": "",
          "type": "uint256"
        }
      ],
      "stateMutability": "view",
      "type": "function",
      "constant": true
    },
    {
      "inputs": [
        {
          "internalType": "uint256",
          "name": "",
          "type": "uint256"
        }
      ],
      "name": "tokenURIs",
      "outputs": [
        {
          "internalType": "string",
          "name": "",
          "type": "string"
        }
      ],
      "stateMutability": "view",
      "type": "function",
      "constant": true
    },
    {
      "inputs": [],
      "name": "totalSupply",
      "outputs": [
        {
          "internalType": "uint256",
          "name": "",
          "type": "uint256"
        }
      ],
      "stateMutability": "view",
      "type": "function",
      "constant": true
    },
    {
      "inputs": [
        {
          "internalType": "address",
          "name": "from",
          "type": "address"
        },
        {
          "internalType": "address",
          "name": "to",
          "type": "address"
        },
        {
          "internalType": "uint256",
          "name": "tokenId",
          "type": "uint256"
        }
      ],
      "name": "transferFrom",
      "outputs": [],
      "stateMutability": "nonpayable",
      "type": "function"
    },
    {
      "inputs": [
        {
          "internalType": "bytes4",
          "name": "interfaceId",
          "type": "bytes4"
        }
      ],
      "name": "supportsInterface",
      "outputs": [
        {
          "internalType": "bool",
          "name": "",
          "type": "bool"
        }
      ],
      "stateMutability": "view",
      "type": "function",
      "constant": true
    },
    {
      "inputs": [
        {
          "internalType": "uint256",
          "name": "tokenId",
          "type": "uint256"
        }
      ],
      "name": "tokenURI",
      "outputs": [
        {
          "internalType": "string",
          "name": "",
          "type": "string"
        }
      ],
      "stateMutability": "view",
      "type": "function",
      "constant": true
    },
    {
      "inputs": [
        {
          "internalType": "string",
          "name": "_tokenURI",
          "type": "string"
        }
      ],
      "name": "safeMint",
      "outputs": [],
      "stateMutability": "nonpayable",
      "type": "function"
    },
    {
      "inputs": [
        {
          "internalType": "address",
          "name": "_address",
          "type": "address"
        },
        {
          "internalType": "uint256",
          "name": "_id",
          "type": "uint256"
        }
      ],
      "name": "setTrack",
      "outputs": [
        {
          "internalType": "bool",
          "name": "",
          "type": "bool"
        }
      ],
      "stateMutability": "nonpayable",
      "type": "function"
    },
    {
      "inputs": [
        {
          "internalType": "uint256",
          "name": "_id",
          "type": "uint256"
        }
      ],
      "name": "getTrack",
      "outputs": [
        {
          "internalType": "address[]",
          "name": "",
          "type": "address[]"
        }
      ],
      "stateMutability": "view",
      "type": "function",
      "constant": true
    }
  ],
  "bytecode": "0x60806040523480156200001157600080fd5b506040518060400160405280601381526020017f434f4d5341545320436f6c6c6c656374696f6e000000000000000000000000008152506040518060400160405280600381526020017f435549000000000000000000000000000000000000000000000000000000000081525081600090816200008f919062000324565b508060019081620000a1919062000324565b5050506200040b565b600081519050919050565b7f4e487b7100000000000000000000000000000000000000000000000000000000600052604160045260246000fd5b7f4e487b7100000000000000000000000000000000000000000000000000000000600052602260045260246000fd5b600060028204905060018216806200012c57607f821691505b602082108103620001425762000141620000e4565b5b50919050565b60008190508160005260206000209050919050565b60006020601f8301049050919050565b600082821b905092915050565b600060088302620001ac7fffffffffffffffffffffffffffffffffffffffffffffffffffffffffffffffff826200016d565b620001b886836200016d565b95508019841693508086168417925050509392505050565b6000819050919050565b6000819050919050565b600062000205620001ff620001f984620001d0565b620001da565b620001d0565b9050919050565b6000819050919050565b6200022183620001e4565b6200023962000230826200020c565b8484546200017a565b825550505050565b600090565b6200025062000241565b6200025d81848462000216565b505050565b5b8181101562000285576200027960008262000246565b60018101905062000263565b5050565b601f821115620002d4576200029e8162000148565b620002a9846200015d565b81016020851015620002b9578190505b620002d1620002c8856200015d565b83018262000262565b50505b505050565b600082821c905092915050565b6000620002f960001984600802620002d9565b1980831691505092915050565b6000620003148383620002e6565b9150826002028217905092915050565b6200032f82620000aa565b67ffffffffffffffff8111156200034b576200034a620000b5565b5b62000357825462000113565b6200036482828562000289565b600060209050601f8311600181146200039c576000841562000387578287015190505b62000393858262000306565b86555062000403565b601f198416620003ac8662000148565b60005b82811015620003d657848901518255600182019150602085019450602081019050620003af565b86831015620003f65784890151620003f2601f891682620002e6565b8355505b6001600288020188555050505b505050505050565b613511806200041b6000396000f3fe608060405234801561001057600080fd5b506004361061012c5760003560e01c80636352211e116100ad578063a22cb46511610071578063a22cb4651461037b578063af3585fe14610397578063b88d4fde146103c7578063c87b56dd146103e3578063e985e9c5146104135761012c565b80636352211e146102b1578063695850fb146102e15780636c8b703f146102fd57806370a082311461032d57806395d89b411461035d5761012c565b806323b872dd116100f457806323b872dd146101e95780632f745c591461020557806342842e0e146102355780634f6ccce714610251578063629058ca146102815761012c565b806301ffc9a71461013157806306fdde0314610161578063081812fc1461017f578063095ea7b3146101af57806318160ddd146101cb575b600080fd5b61014b60048036038101906101469190611fa0565b610443565b6040516101589190611fe8565b60405180910390f35b610169610455565b6040516101769190612093565b60405180910390f35b610199600480360381019061019491906120eb565b6104e7565b6040516101a69190612159565b60405180910390f35b6101c960048036038101906101c491906121a0565b61056c565b005b6101d3610683565b6040516101e091906121ef565b60405180910390f35b61020360048036038101906101fe919061220a565b610690565b005b61021f600480360381019061021a91906121a0565b6106f0565b60405161022c91906121ef565b60405180910390f35b61024f600480360381019061024a919061220a565b610795565b005b61026b600480360381019061026691906120eb565b6107b5565b60405161027891906121ef565b60405180910390f35b61029b600480360381019061029691906120eb565b610826565b6040516102a8919061231b565b60405180910390f35b6102cb60048036038101906102c691906120eb565b6108cc565b6040516102d89190612159565b60405180910390f35b6102fb60048036038101906102f69190612472565b61097d565b005b610317600480360381019061031291906120eb565b610a99565b6040516103249190612093565b60405180910390f35b610347600480360381019061034291906124bb565b610b45565b60405161035491906121ef565b60405180910390f35b610365610bfc565b6040516103729190612093565b60405180910390f35b61039560048036038101906103909190612514565b610c8e565b005b6103b160048036038101906103ac91906121a0565b610ca4565b6040516103be9190611fe8565b60405180910390f35b6103e160048036038101906103dc91906125f5565b610d24565b005b6103fd60048036038101906103f891906120eb565b610d86565b60405161040a9190612093565b60405180910390f35b61042d60048036038101906104289190612678565b610e73565b60405161043a9190611fe8565b60405180910390f35b600061044e82610f07565b9050919050565b606060008054610464906126e7565b80601f0160208091040260200160405190810160405280929190818152602001828054610490906126e7565b80156104dd5780601f106104b2576101008083540402835291602001916104dd565b820191906000526020600020905b8154815290600101906020018083116104c057829003601f168201915b5050505050905090565b60006104f282610f81565b610531576040517f08c379a00000000000000000000000000000000000000000000000000000000081526004016105289061278a565b60405180910390fd5b6004600083815260200190815260200160002060009054906101000a900473ffffffffffffffffffffffffffffffffffffffff169050919050565b6000610577826108cc565b90508073ffffffffffffffffffffffffffffffffffffffff168373ffffffffffffffffffffffffffffffffffffffff16036105e7576040517f08c379a00000000000000000000000000000000000000000000000000000000081526004016105de9061281c565b60405180910390fd5b8073ffffffffffffffffffffffffffffffffffffffff16610606610fed565b73ffffffffffffffffffffffffffffffffffffffff16148061063557506106348161062f610fed565b610e73565b5b610674576040517f08c379a000000000000000000000000000000000000000000000000000000000815260040161066b906128ae565b60405180910390fd5b61067e8383610ff5565b505050565b6000600880549050905090565b6106a161069b610fed565b826110ae565b6106e0576040517f08c379a00000000000000000000000000000000000000000000000000000000081526004016106d790612940565b60405180910390fd5b6106eb83838361118c565b505050565b60006106fb83610b45565b821061073c576040517f08c379a0000000000000000000000000000000000000000000000000000000008152600401610733906129d2565b60405180910390fd5b600660008473ffffffffffffffffffffffffffffffffffffffff1673ffffffffffffffffffffffffffffffffffffffff168152602001908152602001600020600083815260200190815260200160002054905092915050565b6107b083838360405180602001604052806000815250610d24565b505050565b60006107bf610683565b8210610800576040517f08c379a00000000000000000000000000000000000000000000000000000000081526004016107f790612a64565b60405180910390fd5b6008828154811061081457610813612a84565b5b90600052602060002001549050919050565b606080600d60008481526020019081526020016000208054806020026020016040519081016040528092919081815260200182805480156108bc57602002820191906000526020600020905b8160009054906101000a900473ffffffffffffffffffffffffffffffffffffffff1673ffffffffffffffffffffffffffffffffffffffff1681526020019060010190808311610872575b5050505050905080915050919050565b6000806002600084815260200190815260200160002060009054906101000a900473ffffffffffffffffffffffffffffffffffffffff169050600073ffffffffffffffffffffffffffffffffffffffff168173ffffffffffffffffffffffffffffffffffffffff1603610974576040517f08c379a000000000000000000000000000000000000000000000000000000000815260040161096b90612b25565b60405180910390fd5b80915050919050565b600b8160405161098d9190612b81565b908152602001604051809103902060009054906101000a900460ff16156109e9576040517f08c379a00000000000000000000000000000000000000000000000000000000081526004016109e090612be4565b60405180910390fd5b600a81908060018154018082558091505060019003906000526020600020016000909190919091509081610a1d9190612db0565b506000600a80549050905081600c60008381526020019081526020016000209081610a489190612db0565b50610a533382610ca4565b50610a5e33826113f2565b6001600b83604051610a709190612b81565b908152602001604051809103902060006101000a81548160ff0219169083151502179055505050565b600a8181548110610aa957600080fd5b906000526020600020016000915090508054610ac4906126e7565b80601f0160208091040260200160405190810160405280929190818152602001828054610af0906126e7565b8015610b3d5780601f10610b1257610100808354040283529160200191610b3d565b820191906000526020600020905b815481529060010190602001808311610b2057829003601f168201915b505050505081565b60008073ffffffffffffffffffffffffffffffffffffffff168273ffffffffffffffffffffffffffffffffffffffff1603610bb5576040517f08c379a0000000000000000000000000000000000000000000000000000000008152600401610bac90612ef4565b60405180910390fd5b600360008373ffffffffffffffffffffffffffffffffffffffff1673ffffffffffffffffffffffffffffffffffffffff168152602001908152602001600020549050919050565b606060018054610c0b906126e7565b80601f0160208091040260200160405190810160405280929190818152602001828054610c37906126e7565b8015610c845780601f10610c5957610100808354040283529160200191610c84565b820191906000526020600020905b815481529060010190602001808311610c6757829003601f168201915b5050505050905090565b610ca0610c99610fed565b8383611410565b5050565b6000600d6000838152602001908152602001600020839080600181540180825580915050600190039060005260206000200160009091909190916101000a81548173ffffffffffffffffffffffffffffffffffffffff021916908373ffffffffffffffffffffffffffffffffffffffff1602179055506001905092915050565b610d35610d2f610fed565b836110ae565b610d74576040517f08c379a0000000000000000000000000000000000000000000000000000000008152600401610d6b90612940565b60405180910390fd5b610d808484848461157c565b50505050565b6060610d9182610f81565b610dd0576040517f08c379a0000000000000000000000000000000000000000000000000000000008152600401610dc790612f86565b60405180910390fd5b600c60008381526020019081526020016000208054610dee906126e7565b80601f0160208091040260200160405190810160405280929190818152602001828054610e1a906126e7565b8015610e675780601f10610e3c57610100808354040283529160200191610e67565b820191906000526020600020905b815481529060010190602001808311610e4a57829003601f168201915b50505050509050919050565b6000600560008473ffffffffffffffffffffffffffffffffffffffff1673ffffffffffffffffffffffffffffffffffffffff16815260200190815260200160002060008373ffffffffffffffffffffffffffffffffffffffff1673ffffffffffffffffffffffffffffffffffffffff16815260200190815260200160002060009054906101000a900460ff16905092915050565b60007f780e9d63000000000000000000000000000000000000000000000000000000007bffffffffffffffffffffffffffffffffffffffffffffffffffffffff1916827bffffffffffffffffffffffffffffffffffffffffffffffffffffffff19161480610f7a5750610f79826115d8565b5b9050919050565b60008073ffffffffffffffffffffffffffffffffffffffff166002600084815260200190815260200160002060009054906101000a900473ffffffffffffffffffffffffffffffffffffffff1673ffffffffffffffffffffffffffffffffffffffff1614159050919050565b600033905090565b816004600083815260200190815260200160002060006101000a81548173ffffffffffffffffffffffffffffffffffffffff021916908373ffffffffffffffffffffffffffffffffffffffff160217905550808273ffffffffffffffffffffffffffffffffffffffff16611068836108cc565b73ffffffffffffffffffffffffffffffffffffffff167f8c5be1e5ebec7d5bd14f71427d1e84f3dd0314c0f7b2291e5b200ac8c7c3b92560405160405180910390a45050565b60006110b982610f81565b6110f8576040517f08c379a00000000000000000000000000000000000000000000000000000000081526004016110ef90613018565b60405180910390fd5b6000611103836108cc565b90508073ffffffffffffffffffffffffffffffffffffffff168473ffffffffffffffffffffffffffffffffffffffff16148061114557506111448185610e73565b5b8061118357508373ffffffffffffffffffffffffffffffffffffffff1661116b846104e7565b73ffffffffffffffffffffffffffffffffffffffff16145b91505092915050565b8273ffffffffffffffffffffffffffffffffffffffff166111ac826108cc565b73ffffffffffffffffffffffffffffffffffffffff1614611202576040517f08c379a00000000000000000000000000000000000000000000000000000000081526004016111f9906130aa565b60405180910390fd5b600073ffffffffffffffffffffffffffffffffffffffff168273ffffffffffffffffffffffffffffffffffffffff1603611271576040517f08c379a00000000000000000000000000000000000000000000000000000000081526004016112689061313c565b60405180910390fd5b61127c8383836116ba565b611287600082610ff5565b6001600360008573ffffffffffffffffffffffffffffffffffffffff1673ffffffffffffffffffffffffffffffffffffffff16815260200190815260200160002060008282546112d7919061318b565b925050819055506001600360008473ffffffffffffffffffffffffffffffffffffffff1673ffffffffffffffffffffffffffffffffffffffff168152602001908152602001600020600082825461132e91906131bf565b92505081905550816002600083815260200190815260200160002060006101000a81548173ffffffffffffffffffffffffffffffffffffffff021916908373ffffffffffffffffffffffffffffffffffffffff160217905550808273ffffffffffffffffffffffffffffffffffffffff168473ffffffffffffffffffffffffffffffffffffffff167fddf252ad1be2c89b69c2b068fc378daa952ba7f163c4a11628f55a4df523b3ef60405160405180910390a46113ed8383836116ca565b505050565b61140c8282604051806020016040528060008152506116cf565b5050565b8173ffffffffffffffffffffffffffffffffffffffff168373ffffffffffffffffffffffffffffffffffffffff160361147e576040517f08c379a00000000000000000000000000000000000000000000000000000000081526004016114759061323f565b60405180910390fd5b80600560008573ffffffffffffffffffffffffffffffffffffffff1673ffffffffffffffffffffffffffffffffffffffff16815260200190815260200160002060008473ffffffffffffffffffffffffffffffffffffffff1673ffffffffffffffffffffffffffffffffffffffff16815260200190815260200160002060006101000a81548160ff0219169083151502179055508173ffffffffffffffffffffffffffffffffffffffff168373ffffffffffffffffffffffffffffffffffffffff167f17307eab39ab6107e8899845ad3d59bd9653f200f220920489ca2b5937696c318360405161156f9190611fe8565b60405180910390a3505050565b61158784848461118c565b6115938484848461172a565b6115d2576040517f08c379a00000000000000000000000000000000000000000000000000000000081526004016115c9906132d1565b60405180910390fd5b50505050565b60007f80ac58cd000000000000000000000000000000000000000000000000000000007bffffffffffffffffffffffffffffffffffffffffffffffffffffffff1916827bffffffffffffffffffffffffffffffffffffffffffffffffffffffff191614806116a357507f5b5e139f000000000000000000000000000000000000000000000000000000007bffffffffffffffffffffffffffffffffffffffffffffffffffffffff1916827bffffffffffffffffffffffffffffffffffffffffffffffffffffffff1916145b806116b357506116b2826118b1565b5b9050919050565b6116c583838361191b565b505050565b505050565b6116d98383611a2d565b6116e6600084848461172a565b611725576040517f08c379a000000000000000000000000000000000000000000000000000000000815260040161171c906132d1565b60405180910390fd5b505050565b600061174b8473ffffffffffffffffffffffffffffffffffffffff16611c06565b156118a4578373ffffffffffffffffffffffffffffffffffffffff1663150b7a02611774610fed565b8786866040518563ffffffff1660e01b81526004016117969493929190613346565b6020604051808303816000875af19250505080156117d257506040513d601f19601f820116820180604052508101906117cf91906133a7565b60015b611854573d8060008114611802576040519150601f19603f3d011682016040523d82523d6000602084013e611807565b606091505b50600081510361184c576040517f08c379a0000000000000000000000000000000000000000000000000000000008152600401611843906132d1565b60405180910390fd5b805181602001fd5b63150b7a0260e01b7bffffffffffffffffffffffffffffffffffffffffffffffffffffffff1916817bffffffffffffffffffffffffffffffffffffffffffffffffffffffff1916149150506118a9565b600190505b949350505050565b60007f01ffc9a7000000000000000000000000000000000000000000000000000000007bffffffffffffffffffffffffffffffffffffffffffffffffffffffff1916827bffffffffffffffffffffffffffffffffffffffffffffffffffffffff1916149050919050565b611926838383611c29565b600073ffffffffffffffffffffffffffffffffffffffff168373ffffffffffffffffffffffffffffffffffffffff16036119685761196381611c2e565b6119a7565b8173ffffffffffffffffffffffffffffffffffffffff168373ffffffffffffffffffffffffffffffffffffffff16146119a6576119a58382611c77565b5b5b600073ffffffffffffffffffffffffffffffffffffffff168273ffffffffffffffffffffffffffffffffffffffff16036119e9576119e481611de4565b611a28565b8273ffffffffffffffffffffffffffffffffffffffff168273ffffffffffffffffffffffffffffffffffffffff1614611a2757611a268282611eb5565b5b5b505050565b600073ffffffffffffffffffffffffffffffffffffffff168273ffffffffffffffffffffffffffffffffffffffff1603611a9c576040517f08c379a0000000000000000000000000000000000000000000000000000000008152600401611a9390613420565b60405180910390fd5b611aa581610f81565b15611ae5576040517f08c379a0000000000000000000000000000000000000000000000000000000008152600401611adc9061348c565b60405180910390fd5b611af1600083836116ba565b6001600360008473ffffffffffffffffffffffffffffffffffffffff1673ffffffffffffffffffffffffffffffffffffffff1681526020019081526020016000206000828254611b4191906131bf565b92505081905550816002600083815260200190815260200160002060006101000a81548173ffffffffffffffffffffffffffffffffffffffff021916908373ffffffffffffffffffffffffffffffffffffffff160217905550808273ffffffffffffffffffffffffffffffffffffffff16600073ffffffffffffffffffffffffffffffffffffffff167fddf252ad1be2c89b69c2b068fc378daa952ba7f163c4a11628f55a4df523b3ef60405160405180910390a4611c02600083836116ca565b5050565b6000808273ffffffffffffffffffffffffffffffffffffffff163b119050919050565b505050565b6008805490506009600083815260200190815260200160002081905550600881908060018154018082558091505060019003906000526020600020016000909190919091505550565b60006001611c8484610b45565b611c8e919061318b565b9050600060076000848152602001908152602001600020549050818114611d73576000600660008673ffffffffffffffffffffffffffffffffffffffff1673ffffffffffffffffffffffffffffffffffffffff168152602001908152602001600020600084815260200190815260200160002054905080600660008773ffffffffffffffffffffffffffffffffffffffff1673ffffffffffffffffffffffffffffffffffffffff168152602001908152602001600020600084815260200190815260200160002081905550816007600083815260200190815260200160002081905550505b6007600084815260200190815260200160002060009055600660008573ffffffffffffffffffffffffffffffffffffffff1673ffffffffffffffffffffffffffffffffffffffff16815260200190815260200160002060008381526020019081526020016000206000905550505050565b60006001600880549050611df8919061318b565b9050600060096000848152602001908152602001600020549050600060088381548110611e2857611e27612a84565b5b906000526020600020015490508060088381548110611e4a57611e49612a84565b5b906000526020600020018190555081600960008381526020019081526020016000208190555060096000858152602001908152602001600020600090556008805480611e9957611e986134ac565b5b6001900381819060005260206000200160009055905550505050565b6000611ec083610b45565b905081600660008573ffffffffffffffffffffffffffffffffffffffff1673ffffffffffffffffffffffffffffffffffffffff168152602001908152602001600020600083815260200190815260200160002081905550806007600084815260200190815260200160002081905550505050565b6000604051905090565b600080fd5b600080fd5b60007fffffffff0000000000000000000000000000000000000000000000000000000082169050919050565b611f7d81611f48565b8114611f8857600080fd5b50565b600081359050611f9a81611f74565b92915050565b600060208284031215611fb657611fb5611f3e565b5b6000611fc484828501611f8b565b91505092915050565b60008115159050919050565b611fe281611fcd565b82525050565b6000602082019050611ffd6000830184611fd9565b92915050565b600081519050919050565b600082825260208201905092915050565b60005b8381101561203d578082015181840152602081019050612022565b60008484015250505050565b6000601f19601f8301169050919050565b600061206582612003565b61206f818561200e565b935061207f81856020860161201f565b61208881612049565b840191505092915050565b600060208201905081810360008301526120ad818461205a565b905092915050565b6000819050919050565b6120c8816120b5565b81146120d357600080fd5b50565b6000813590506120e5816120bf565b92915050565b60006020828403121561210157612100611f3e565b5b600061210f848285016120d6565b91505092915050565b600073ffffffffffffffffffffffffffffffffffffffff82169050919050565b600061214382612118565b9050919050565b61215381612138565b82525050565b600060208201905061216e600083018461214a565b92915050565b61217d81612138565b811461218857600080fd5b50565b60008135905061219a81612174565b92915050565b600080604083850312156121b7576121b6611f3e565b5b60006121c58582860161218b565b92505060206121d6858286016120d6565b9150509250929050565b6121e9816120b5565b82525050565b600060208201905061220460008301846121e0565b92915050565b60008060006060848603121561222357612222611f3e565b5b60006122318682870161218b565b93505060206122428682870161218b565b9250506040612253868287016120d6565b9150509250925092565b600081519050919050565b600082825260208201905092915050565b6000819050602082019050919050565b61229281612138565b82525050565b60006122a48383612289565b60208301905092915050565b6000602082019050919050565b60006122c88261225d565b6122d28185612268565b93506122dd83612279565b8060005b8381101561230e5781516122f58882612298565b9750612300836122b0565b9250506001810190506122e1565b5085935050505092915050565b6000602082019050818103600083015261233581846122bd565b905092915050565b600080fd5b600080fd5b7f4e487b7100000000000000000000000000000000000000000000000000000000600052604160045260246000fd5b61237f82612049565b810181811067ffffffffffffffff8211171561239e5761239d612347565b5b80604052505050565b60006123b1611f34565b90506123bd8282612376565b919050565b600067ffffffffffffffff8211156123dd576123dc612347565b5b6123e682612049565b9050602081019050919050565b82818337600083830152505050565b6000612415612410846123c2565b6123a7565b90508281526020810184848401111561243157612430612342565b5b61243c8482856123f3565b509392505050565b600082601f8301126124595761245861233d565b5b8135612469848260208601612402565b91505092915050565b60006020828403121561248857612487611f3e565b5b600082013567ffffffffffffffff8111156124a6576124a5611f43565b5b6124b284828501612444565b91505092915050565b6000602082840312156124d1576124d0611f3e565b5b60006124df8482850161218b565b91505092915050565b6124f181611fcd565b81146124fc57600080fd5b50565b60008135905061250e816124e8565b92915050565b6000806040838503121561252b5761252a611f3e565b5b60006125398582860161218b565b925050602061254a858286016124ff565b9150509250929050565b600067ffffffffffffffff82111561256f5761256e612347565b5b61257882612049565b9050602081019050919050565b600061259861259384612554565b6123a7565b9050828152602081018484840111156125b4576125b3612342565b5b6125bf8482856123f3565b509392505050565b600082601f8301126125dc576125db61233d565b5b81356125ec848260208601612585565b91505092915050565b6000806000806080858703121561260f5761260e611f3e565b5b600061261d8782880161218b565b945050602061262e8782880161218b565b935050604061263f878288016120d6565b925050606085013567ffffffffffffffff8111156126605761265f611f43565b5b61266c878288016125c7565b91505092959194509250565b6000806040838503121561268f5761268e611f3e565b5b600061269d8582860161218b565b92505060206126ae8582860161218b565b9150509250929050565b7f4e487b7100000000000000000000000000000000000000000000000000000000600052602260045260246000fd5b600060028204905060018216806126ff57607f821691505b602082108103612712576127116126b8565b5b50919050565b7f4552433732313a20617070726f76656420717565727920666f72206e6f6e657860008201527f697374656e7420746f6b656e0000000000000000000000000000000000000000602082015250565b6000612774602c8361200e565b915061277f82612718565b604082019050919050565b600060208201905081810360008301526127a381612767565b9050919050565b7f4552433732313a20617070726f76616c20746f2063757272656e74206f776e6560008201527f7200000000000000000000000000000000000000000000000000000000000000602082015250565b600061280660218361200e565b9150612811826127aa565b604082019050919050565b60006020820190508181036000830152612835816127f9565b9050919050565b7f4552433732313a20617070726f76652063616c6c6572206973206e6f74206f7760008201527f6e6572206e6f7220617070726f76656420666f7220616c6c0000000000000000602082015250565b600061289860388361200e565b91506128a38261283c565b604082019050919050565b600060208201905081810360008301526128c78161288b565b9050919050565b7f4552433732313a207472616e736665722063616c6c6572206973206e6f74206f60008201527f776e6572206e6f7220617070726f766564000000000000000000000000000000602082015250565b600061292a60318361200e565b9150612935826128ce565b604082019050919050565b600060208201905081810360008301526129598161291d565b9050919050565b7f455243373231456e756d657261626c653a206f776e657220696e646578206f7560008201527f74206f6620626f756e6473000000000000000000000000000000000000000000602082015250565b60006129bc602b8361200e565b91506129c782612960565b604082019050919050565b600060208201905081810360008301526129eb816129af565b9050919050565b7f455243373231456e756d657261626c653a20676c6f62616c20696e646578206f60008201527f7574206f6620626f756e64730000000000000000000000000000000000000000602082015250565b6000612a4e602c8361200e565b9150612a59826129f2565b604082019050919050565b60006020820190508181036000830152612a7d81612a41565b9050919050565b7f4e487b7100000000000000000000000000000000000000000000000000000000600052603260045260246000fd5b7f4552433732313a206f776e657220717565727920666f72206e6f6e657869737460008201527f656e7420746f6b656e0000000000000000000000000000000000000000000000602082015250565b6000612b0f60298361200e565b9150612b1a82612ab3565b604082019050919050565b60006020820190508181036000830152612b3e81612b02565b9050919050565b600081905092915050565b6000612b5b82612003565b612b658185612b45565b9350612b7581856020860161201f565b80840191505092915050565b6000612b8d8284612b50565b915081905092915050565b7f54686520746f6b656e205552492073686f756c6420626520756e697175650000600082015250565b6000612bce601e8361200e565b9150612bd982612b98565b602082019050919050565b60006020820190508181036000830152612bfd81612bc1565b9050919050565b60008190508160005260206000209050919050565b60006020601f8301049050919050565b600082821b905092915050565b600060088302612c667fffffffffffffffffffffffffffffffffffffffffffffffffffffffffffffffff82612c29565b612c708683612c29565b95508019841693508086168417925050509392505050565b6000819050919050565b6000612cad612ca8612ca3846120b5565b612c88565b6120b5565b9050919050565b6000819050919050565b612cc783612c92565b612cdb612cd382612cb4565b848454612c36565b825550505050565b600090565b612cf0612ce3565b612cfb818484612cbe565b505050565b5b81811015612d1f57612d14600082612ce8565b600181019050612d01565b5050565b601f821115612d6457612d3581612c04565b612d3e84612c19565b81016020851015612d4d578190505b612d61612d5985612c19565b830182612d00565b50505b505050565b600082821c905092915050565b6000612d8760001984600802612d69565b1980831691505092915050565b6000612da08383612d76565b9150826002028217905092915050565b612db982612003565b67ffffffffffffffff811115612dd257612dd1612347565b5b612ddc82546126e7565b612de7828285612d23565b600060209050601f831160018114612e1a5760008415612e08578287015190505b612e128582612d94565b865550612e7a565b601f198416612e2886612c04565b60005b82811015612e5057848901518255600182019150602085019450602081019050612e2b565b86831015612e6d5784890151612e69601f891682612d76565b8355505b6001600288020188555050505b505050505050565b7f4552433732313a2062616c616e636520717565727920666f7220746865207a6560008201527f726f206164647265737300000000000000000000000000000000000000000000602082015250565b6000612ede602a8361200e565b9150612ee982612e82565b604082019050919050565b60006020820190508181036000830152612f0d81612ed1565b9050919050565b7f4552433732314d657461646174613a2055524920717565727920666f72206e6f60008201527f6e6578697374656e7420746f6b656e0000000000000000000000000000000000602082015250565b6000612f70602f8361200e565b9150612f7b82612f14565b604082019050919050565b60006020820190508181036000830152612f9f81612f63565b9050919050565b7f4552433732313a206f70657261746f7220717565727920666f72206e6f6e657860008201527f697374656e7420746f6b656e0000000000000000000000000000000000000000602082015250565b6000613002602c8361200e565b915061300d82612fa6565b604082019050919050565b6000602082019050818103600083015261303181612ff5565b9050919050565b7f4552433732313a207472616e736665722066726f6d20696e636f72726563742060008201527f6f776e6572000000000000000000000000000000000000000000000000000000602082015250565b600061309460258361200e565b915061309f82613038565b604082019050919050565b600060208201905081810360008301526130c381613087565b9050919050565b7f4552433732313a207472616e7366657220746f20746865207a65726f2061646460008201527f7265737300000000000000000000000000000000000000000000000000000000602082015250565b600061312660248361200e565b9150613131826130ca565b604082019050919050565b6000602082019050818103600083015261315581613119565b9050919050565b7f4e487b7100000000000000000000000000000000000000000000000000000000600052601160045260246000fd5b6000613196826120b5565b91506131a1836120b5565b92508282039050818111156131b9576131b861315c565b5b92915050565b60006131ca826120b5565b91506131d5836120b5565b92508282019050808211156131ed576131ec61315c565b5b92915050565b7f4552433732313a20617070726f766520746f2063616c6c657200000000000000600082015250565b600061322960198361200e565b9150613234826131f3565b602082019050919050565b600060208201905081810360008301526132588161321c565b9050919050565b7f4552433732313a207472616e7366657220746f206e6f6e20455243373231526560008201527f63656976657220696d706c656d656e7465720000000000000000000000000000602082015250565b60006132bb60328361200e565b91506132c68261325f565b604082019050919050565b600060208201905081810360008301526132ea816132ae565b9050919050565b600081519050919050565b600082825260208201905092915050565b6000613318826132f1565b61332281856132fc565b935061333281856020860161201f565b61333b81612049565b840191505092915050565b600060808201905061335b600083018761214a565b613368602083018661214a565b61337560408301856121e0565b8181036060830152613387818461330d565b905095945050505050565b6000815190506133a181611f74565b92915050565b6000602082840312156133bd576133bc611f3e565b5b60006133cb84828501613392565b91505092915050565b7f4552433732313a206d696e7420746f20746865207a65726f2061646472657373600082015250565b600061340a60208361200e565b9150613415826133d4565b602082019050919050565b60006020820190508181036000830152613439816133fd565b9050919050565b7f4552433732313a20746f6b656e20616c7265616479206d696e74656400000000600082015250565b6000613476601c8361200e565b915061348182613440565b602082019050919050565b600060208201905081810360008301526134a581613469565b9050919050565b7f4e487b7100000000000000000000000000000000000000000000000000000000600052603160045260246000fdfea2646970667358221220e442c67d3fe5b96f02558541d2e6bcdad6611e59de1d58d71bc400188f77377164736f6c63430008130033",
  "immutableReferences": {},
  "source": "// SPDX-License-Identifier: MIT\r\npragma solidity ^0.8.0;\r\n\r\nimport \"../client/node_modules/@openzeppelin/contracts/token/ERC721/ERC721.sol\";\r\nimport \"../client/node_modules/@openzeppelin/contracts/token/ERC721/extensions/ERC721Enumerable.sol\";\r\n\r\ncontract NFTCollection is ERC721, ERC721Enumerable {\r\n    string[] public tokenURIs;\r\n    mapping(string => bool) _tokenURIExists;\r\n    mapping(uint256 => string) _tokenIdToTokenURI;\r\n    mapping(uint256 => address[]) _itemTrack;\r\n\r\n    constructor() ERC721(\"COMSATS Colllection\", \"CUI\") {}\r\n\r\n    function _beforeTokenTransfer(\r\n        address from,\r\n        address to,\r\n        uint256 tokenId\r\n    ) internal override(ERC721, ERC721Enumerable) {\r\n        super._beforeTokenTransfer(from, to, tokenId);\r\n    }\r\n\r\n    function supportsInterface(bytes4 interfaceId)\r\n        public\r\n        view\r\n        override(ERC721, ERC721Enumerable)\r\n        returns (bool)\r\n    {\r\n        return super.supportsInterface(interfaceId);\r\n    }\r\n\r\n    function tokenURI(uint256 tokenId)\r\n        public\r\n        view\r\n        override\r\n        returns (string memory)\r\n    {\r\n        require(\r\n            _exists(tokenId),\r\n            \"ERC721Metadata: URI query for nonexistent token\"\r\n        );\r\n        return _tokenIdToTokenURI[tokenId];\r\n    }\r\n\r\n    function safeMint(string memory _tokenURI) public {\r\n        require(!_tokenURIExists[_tokenURI], \"The token URI should be unique\");\r\n        tokenURIs.push(_tokenURI);\r\n        uint256 _id = tokenURIs.length;\r\n        _tokenIdToTokenURI[_id] = _tokenURI;\r\n        setTrack(msg.sender, _id);\r\n        _safeMint(msg.sender, _id);\r\n        _tokenURIExists[_tokenURI] = true;\r\n    }\r\n\r\n    function setTrack(address _address, uint256 _id) public returns (bool) {\r\n        _itemTrack[_id].push(_address);\r\n        return true;\r\n    }\r\n\r\n    function getTrack(uint256 _id) public view returns (address[] memory) {\r\n        address[] memory users;\r\n        users = _itemTrack[_id];\r\n        return users;\r\n    }\r\n}\r\n",
  "sourcePath": "/home/zaryab/NFTSApps/NFTUni/graphic-nft-marketplace/contracts/NFTCollection.sol",
  "compiler": {
    "name": "solc",
    "version": "0.8.19+commit.7dd6d404.Emscripten.clang"
  },
  "schemaVersion": "3.4.5",
  "updatedAt": "2023-04-17T09:23:14.431Z",
  "networkType": "ethereum",
  "devdoc": {
    "events": {
      "Approval(address,address,uint256)": {
        "details": "Emitted when `owner` enables `approved` to manage the `tokenId` token."
      },
      "ApprovalForAll(address,address,bool)": {
        "details": "Emitted when `owner` enables or disables (`approved`) `operator` to manage all of its assets."
      },
      "Transfer(address,address,uint256)": {
        "details": "Emitted when `tokenId` token is transferred from `from` to `to`."
      }
    },
    "kind": "dev",
    "methods": {
      "approve(address,uint256)": {
        "details": "See {IERC721-approve}."
      },
      "balanceOf(address)": {
        "details": "See {IERC721-balanceOf}."
      },
      "getApproved(uint256)": {
        "details": "See {IERC721-getApproved}."
      },
      "isApprovedForAll(address,address)": {
        "details": "See {IERC721-isApprovedForAll}."
      },
      "name()": {
        "details": "See {IERC721Metadata-name}."
      },
      "ownerOf(uint256)": {
        "details": "See {IERC721-ownerOf}."
      },
      "safeTransferFrom(address,address,uint256)": {
        "details": "See {IERC721-safeTransferFrom}."
      },
      "safeTransferFrom(address,address,uint256,bytes)": {
        "details": "See {IERC721-safeTransferFrom}."
      },
      "setApprovalForAll(address,bool)": {
        "details": "See {IERC721-setApprovalForAll}."
      },
      "symbol()": {
        "details": "See {IERC721Metadata-symbol}."
      },
      "tokenByIndex(uint256)": {
        "details": "See {IERC721Enumerable-tokenByIndex}."
      },
      "tokenOfOwnerByIndex(address,uint256)": {
        "details": "See {IERC721Enumerable-tokenOfOwnerByIndex}."
      },
      "tokenURI(uint256)": {
        "details": "See {IERC721Metadata-tokenURI}."
      },
      "totalSupply()": {
        "details": "See {IERC721Enumerable-totalSupply}."
      },
      "transferFrom(address,address,uint256)": {
        "details": "See {IERC721-transferFrom}."
      }
    },
    "version": 1
  },
  "userdoc": {
    "kind": "user",
    "methods": {},
    "version": 1
  }
}