{
  "contractName": "NFTMarketplace",
  "abi": [
    {
      "inputs": [
        {
          "internalType": "address",
          "name": "_nftCollection",
          "type": "address"
        }
      ],
      "stateMutability": "nonpayable",
      "type": "constructor"
    },
    {
      "anonymous": false,
      "inputs": [
        {
          "indexed": false,
          "internalType": "address",
          "name": "user",
          "type": "address"
        },
        {
          "indexed": false,
          "internalType": "uint256",
          "name": "amount",
          "type": "uint256"
        }
      ],
      "name": "ClaimFunds",
      "type": "event"
    },
    {
      "anonymous": false,
      "inputs": [
        {
          "indexed": false,
          "internalType": "uint256",
          "name": "offerId",
          "type": "uint256"
        },
        {
          "indexed": false,
          "internalType": "uint256",
          "name": "id",
          "type": "uint256"
        },
        {
          "indexed": false,
          "internalType": "address",
          "name": "user",
          "type": "address"
        },
        {
          "indexed": false,
          "internalType": "uint256",
          "name": "price",
          "type": "uint256"
        },
        {
          "indexed": false,
          "internalType": "bool",
          "name": "fulfilled",
          "type": "bool"
        },
        {
          "indexed": false,
          "internalType": "bool",
          "name": "cancelled",
          "type": "bool"
        }
      ],
      "name": "Offer",
      "type": "event"
    },
    {
      "anonymous": false,
      "inputs": [
        {
          "indexed": false,
          "internalType": "uint256",
          "name": "offerId",
          "type": "uint256"
        },
        {
          "indexed": false,
          "internalType": "uint256",
          "name": "id",
          "type": "uint256"
        },
        {
          "indexed": false,
          "internalType": "address",
          "name": "owner",
          "type": "address"
        }
      ],
      "name": "OfferCancelled",
      "type": "event"
    },
    {
      "anonymous": false,
      "inputs": [
        {
          "indexed": false,
          "internalType": "uint256",
          "name": "offerId",
          "type": "uint256"
        },
        {
          "indexed": false,
          "internalType": "uint256",
          "name": "id",
          "type": "uint256"
        },
        {
          "indexed": false,
          "internalType": "address",
          "name": "newOwner",
          "type": "address"
        }
      ],
      "name": "OfferFilled",
      "type": "event"
    },
    {
      "stateMutability": "nonpayable",
      "type": "fallback"
    },
    {
      "inputs": [],
      "name": "offerCount",
      "outputs": [
        {
          "internalType": "uint256",
          "name": "",
          "type": "uint256"
        }
      ],
      "stateMutability": "view",
      "type": "function",
      "constant": true
    },
    {
      "inputs": [
        {
          "internalType": "uint256",
          "name": "",
          "type": "uint256"
        }
      ],
      "name": "offers",
      "outputs": [
        {
          "internalType": "uint256",
          "name": "offerId",
          "type": "uint256"
        },
        {
          "internalType": "uint256",
          "name": "id",
          "type": "uint256"
        },
        {
          "internalType": "address",
          "name": "user",
          "type": "address"
        },
        {
          "internalType": "uint256",
          "name": "price",
          "type": "uint256"
        },
        {
          "internalType": "bool",
          "name": "fulfilled",
          "type": "bool"
        },
        {
          "internalType": "bool",
          "name": "cancelled",
          "type": "bool"
        }
      ],
      "stateMutability": "view",
      "type": "function",
      "constant": true
    },
    {
      "inputs": [
        {
          "internalType": "uint256",
          "name": "",
          "type": "uint256"
        }
      ],
      "name": "sellers",
      "outputs": [
        {
          "internalType": "address",
          "name": "userAddres",
          "type": "address"
        },
        {
          "internalType": "uint256",
          "name": "balance",
          "type": "uint256"
        }
      ],
      "stateMutability": "view",
      "type": "function",
      "constant": true
    },
    {
      "inputs": [
        {
          "internalType": "address",
          "name": "",
          "type": "address"
        }
      ],
      "name": "userFunds",
      "outputs": [
        {
          "internalType": "uint256",
          "name": "",
          "type": "uint256"
        }
      ],
      "stateMutability": "view",
      "type": "function",
      "constant": true
    },
    {
      "inputs": [
        {
          "internalType": "uint256",
          "name": "_id",
          "type": "uint256"
        },
        {
          "internalType": "uint256",
          "name": "_price",
          "type": "uint256"
        }
      ],
      "name": "makeOffer",
      "outputs": [],
      "stateMutability": "nonpayable",
      "type": "function"
    },
    {
      "inputs": [
        {
          "internalType": "uint256",
          "name": "_offerId",
          "type": "uint256"
        }
      ],
      "name": "fillOffer",
      "outputs": [],
      "stateMutability": "payable",
      "type": "function",
      "payable": true
    },
    {
      "inputs": [
        {
          "internalType": "uint256",
          "name": "_offerId",
          "type": "uint256"
        }
      ],
      "name": "cancelOffer",
      "outputs": [],
      "stateMutability": "nonpayable",
      "type": "function"
    },
    {
      "inputs": [],
      "name": "claimFunds",
      "outputs": [],
      "stateMutability": "nonpayable",
      "type": "function"
    },
    {
      "inputs": [],
      "name": "getSellers",
      "outputs": [
        {
          "internalType": "address[]",
          "name": "",
          "type": "address[]"
        },
        {
          "internalType": "uint256[]",
          "name": "",
          "type": "uint256[]"
        }
      ],
      "stateMutability": "view",
      "type": "function",
      "constant": true
    }
  ],
  "bytecode": "0x60806040523480156200001157600080fd5b5060405162001b8338038062001b838339818101604052810190620000379190620000e9565b80600560006101000a81548173ffffffffffffffffffffffffffffffffffffffff021916908373ffffffffffffffffffffffffffffffffffffffff160217905550506200011b565b600080fd5b600073ffffffffffffffffffffffffffffffffffffffff82169050919050565b6000620000b18262000084565b9050919050565b620000c381620000a4565b8114620000cf57600080fd5b50565b600081519050620000e381620000b8565b92915050565b6000602082840312156200010257620001016200007f565b5b60006200011284828501620000d2565b91505092915050565b611a58806200012b6000396000f3fe60806040526004361061008a5760003560e01c806385dba8611161005957806385dba861146101595780638a72ea6a14610175578063ac307773146101b7578063cee26ed5146101ce578063ef706adf1461020c5761008b565b806305b7cdd31461009c5780631115c24d146100c55780637ee454cb146100f05780638387c6e11461011c5761008b565b5b34801561009757600080fd5b600080fd5b3480156100a857600080fd5b506100c360048036038101906100be9190610fbc565b610235565b005b3480156100d157600080fd5b506100da61042e565b6040516100e7919061100b565b60405180910390f35b3480156100fc57600080fd5b50610105610434565b6040516101139291906111d4565b60405180910390f35b34801561012857600080fd5b50610143600480360381019061013e9190611237565b6105ba565b604051610150919061100b565b60405180910390f35b610173600480360381019061016e9190611264565b6105d2565b005b34801561018157600080fd5b5061019c60048036038101906101979190611264565b610a6c565b6040516101ae969594939291906112bb565b60405180910390f35b3480156101c357600080fd5b506101cc610ae2565b005b3480156101da57600080fd5b506101f560048036038101906101f09190611264565b610ca9565b60405161020392919061131c565b60405180910390f35b34801561021857600080fd5b50610233600480360381019061022e9190611264565b610ced565b005b600560009054906101000a900473ffffffffffffffffffffffffffffffffffffffff1673ffffffffffffffffffffffffffffffffffffffff166323b872dd3330856040518463ffffffff1660e01b815260040161029493929190611345565b600060405180830381600087803b1580156102ae57600080fd5b505af11580156102c2573d6000803e3d6000fd5b50505050600160008154809291906102d9906113ab565b91905055506040518060c0016040528060015481526020018381526020013373ffffffffffffffffffffffffffffffffffffffff16815260200182815260200160001515815260200160001515815250600260006001548152602001908152602001600020600082015181600001556020820151816001015560408201518160020160006101000a81548173ffffffffffffffffffffffffffffffffffffffff021916908373ffffffffffffffffffffffffffffffffffffffff1602179055506060820151816003015560808201518160040160006101000a81548160ff02191690831515021790555060a08201518160040160016101000a81548160ff0219169083151502179055509050507f93e711896d4ef527d199d7e101922e20f918cbb248a0fb0977c52fda24aa1f1d600154833384600080604051610422969594939291906112bb565b60405180910390a15050565b60015481565b6060806000805467ffffffffffffffff811115610454576104536113f3565b5b6040519080825280602002602001820160405280156104825781602001602082028036833780820191505090505b5090506000805467ffffffffffffffff8111156104a2576104a16113f3565b5b6040519080825280602002602001820160405280156104d05781602001602082028036833780820191505090505b50905060005b6000548110156105ad576004600082815260200190815260200160002060000160009054906101000a900473ffffffffffffffffffffffffffffffffffffffff1683828151811061052a57610529611422565b5b602002602001019073ffffffffffffffffffffffffffffffffffffffff16908173ffffffffffffffffffffffffffffffffffffffff1681525050600460008281526020019081526020016000206001015482828151811061058e5761058d611422565b5b60200260200101818152505080806105a5906113ab565b9150506104d6565b5081819350935050509091565b60036020528060005260406000206000915090505481565b60006002600083815260200190815260200160002090508181600001541461062f576040517f08c379a0000000000000000000000000000000000000000000000000000000008152600401610626906114ae565b60405180910390fd5b3373ffffffffffffffffffffffffffffffffffffffff168160020160009054906101000a900473ffffffffffffffffffffffffffffffffffffffff1673ffffffffffffffffffffffffffffffffffffffff16036106c1576040517f08c379a00000000000000000000000000000000000000000000000000000000081526004016106b890611540565b60405180910390fd5b8060040160009054906101000a900460ff1615610713576040517f08c379a000000000000000000000000000000000000000000000000000000000815260040161070a906115d2565b60405180910390fd5b8060040160019054906101000a900460ff1615610765576040517f08c379a000000000000000000000000000000000000000000000000000000000815260040161075c90611664565b60405180910390fd5b806003015434146107ab576040517f08c379a00000000000000000000000000000000000000000000000000000000081526004016107a2906116f6565b60405180910390fd5b600560009054906101000a900473ffffffffffffffffffffffffffffffffffffffff1673ffffffffffffffffffffffffffffffffffffffff166323b872dd303384600101546040518463ffffffff1660e01b815260040161080e93929190611345565b600060405180830381600087803b15801561082857600080fd5b505af115801561083c573d6000803e3d6000fd5b5050505060018160040160006101000a81548160ff02191690831515021790555034600360008360020160009054906101000a900473ffffffffffffffffffffffffffffffffffffffff1673ffffffffffffffffffffffffffffffffffffffff1673ffffffffffffffffffffffffffffffffffffffff16815260200190815260200160002060008282546108d09190611716565b925050819055508060020160009054906101000a900473ffffffffffffffffffffffffffffffffffffffff16600460008054815260200190815260200160002060000160006101000a81548173ffffffffffffffffffffffffffffffffffffffff021916908373ffffffffffffffffffffffffffffffffffffffff16021790555034600460008054815260200190815260200160002060010181905550600560009054906101000a900473ffffffffffffffffffffffffffffffffffffffff1673ffffffffffffffffffffffffffffffffffffffff1663af3585fe3383600101546040518363ffffffff1660e01b81526004016109ce92919061131c565b6020604051808303816000875af11580156109ed573d6000803e3d6000fd5b505050506040513d601f19601f82011682018060405250810190610a119190611776565b50600080815480929190610a24906113ab565b91905055507fd9157c065213ada613694e84b1e27fe2efd62d85c6b82bd6c842a4999491e72a82826001015433604051610a60939291906117a3565b60405180910390a15050565b60026020528060005260406000206000915090508060000154908060010154908060020160009054906101000a900473ffffffffffffffffffffffffffffffffffffffff16908060030154908060040160009054906101000a900460ff16908060040160019054906101000a900460ff16905086565b6000600360003373ffffffffffffffffffffffffffffffffffffffff1673ffffffffffffffffffffffffffffffffffffffff1681526020019081526020016000205411610b64576040517f08c379a0000000000000000000000000000000000000000000000000000000008152600401610b5b9061184c565b60405180910390fd5b3373ffffffffffffffffffffffffffffffffffffffff166108fc600360003373ffffffffffffffffffffffffffffffffffffffff1673ffffffffffffffffffffffffffffffffffffffff168152602001908152602001600020549081150290604051600060405180830381858888f19350505050158015610be9573d6000803e3d6000fd5b507f4f0554190111f93f8c2ccef2cc41473f187d7f29ff5a5c308ca41f9dfe4e989a33600360003373ffffffffffffffffffffffffffffffffffffffff1673ffffffffffffffffffffffffffffffffffffffff16815260200190815260200160002054604051610c5a92919061131c565b60405180910390a16000600360003373ffffffffffffffffffffffffffffffffffffffff1673ffffffffffffffffffffffffffffffffffffffff16815260200190815260200160002081905550565b60046020528060005260406000206000915090508060000160009054906101000a900473ffffffffffffffffffffffffffffffffffffffff16908060010154905082565b600060026000838152602001908152602001600020905081816000015414610d4a576040517f08c379a0000000000000000000000000000000000000000000000000000000008152600401610d41906114ae565b60405180910390fd5b3373ffffffffffffffffffffffffffffffffffffffff168160020160009054906101000a900473ffffffffffffffffffffffffffffffffffffffff1673ffffffffffffffffffffffffffffffffffffffff1614610ddc576040517f08c379a0000000000000000000000000000000000000000000000000000000008152600401610dd3906118de565b60405180910390fd5b600015158160040160009054906101000a900460ff16151514610e34576040517f08c379a0000000000000000000000000000000000000000000000000000000008152600401610e2b90611970565b60405180910390fd5b600015158160040160019054906101000a900460ff16151514610e8c576040517f08c379a0000000000000000000000000000000000000000000000000000000008152600401610e8390611a02565b60405180910390fd5b600560009054906101000a900473ffffffffffffffffffffffffffffffffffffffff1673ffffffffffffffffffffffffffffffffffffffff166323b872dd303384600101546040518463ffffffff1660e01b8152600401610eef93929190611345565b600060405180830381600087803b158015610f0957600080fd5b505af1158015610f1d573d6000803e3d6000fd5b5050505060018160040160016101000a81548160ff0219169083151502179055507f5b166b4d0498ff8c4719999cb6154c5d197e6f020f9fbfcf9d347f84576cfab782826001015433604051610f75939291906117a3565b60405180910390a15050565b600080fd5b6000819050919050565b610f9981610f86565b8114610fa457600080fd5b50565b600081359050610fb681610f90565b92915050565b60008060408385031215610fd357610fd2610f81565b5b6000610fe185828601610fa7565b9250506020610ff285828601610fa7565b9150509250929050565b61100581610f86565b82525050565b60006020820190506110206000830184610ffc565b92915050565b600081519050919050565b600082825260208201905092915050565b6000819050602082019050919050565b600073ffffffffffffffffffffffffffffffffffffffff82169050919050565b600061107d82611052565b9050919050565b61108d81611072565b82525050565b600061109f8383611084565b60208301905092915050565b6000602082019050919050565b60006110c382611026565b6110cd8185611031565b93506110d883611042565b8060005b838110156111095781516110f08882611093565b97506110fb836110ab565b9250506001810190506110dc565b5085935050505092915050565b600081519050919050565b600082825260208201905092915050565b6000819050602082019050919050565b61114b81610f86565b82525050565b600061115d8383611142565b60208301905092915050565b6000602082019050919050565b600061118182611116565b61118b8185611121565b935061119683611132565b8060005b838110156111c75781516111ae8882611151565b97506111b983611169565b92505060018101905061119a565b5085935050505092915050565b600060408201905081810360008301526111ee81856110b8565b905081810360208301526112028184611176565b90509392505050565b61121481611072565b811461121f57600080fd5b50565b6000813590506112318161120b565b92915050565b60006020828403121561124d5761124c610f81565b5b600061125b84828501611222565b91505092915050565b60006020828403121561127a57611279610f81565b5b600061128884828501610fa7565b91505092915050565b61129a81611072565b82525050565b60008115159050919050565b6112b5816112a0565b82525050565b600060c0820190506112d06000830189610ffc565b6112dd6020830188610ffc565b6112ea6040830187611291565b6112f76060830186610ffc565b61130460808301856112ac565b61131160a08301846112ac565b979650505050505050565b60006040820190506113316000830185611291565b61133e6020830184610ffc565b9392505050565b600060608201905061135a6000830186611291565b6113676020830185611291565b6113746040830184610ffc565b949350505050565b7f4e487b7100000000000000000000000000000000000000000000000000000000600052601160045260246000fd5b60006113b682610f86565b91507fffffffffffffffffffffffffffffffffffffffffffffffffffffffffffffffff82036113e8576113e761137c565b5b600182019050919050565b7f4e487b7100000000000000000000000000000000000000000000000000000000600052604160045260246000fd5b7f4e487b7100000000000000000000000000000000000000000000000000000000600052603260045260246000fd5b600082825260208201905092915050565b7f546865206f66666572206d757374206578697374000000000000000000000000600082015250565b6000611498601483611451565b91506114a382611462565b602082019050919050565b600060208201905081810360008301526114c78161148b565b9050919050565b7f546865206f776e6572206f6620746865206f666665722063616e6e6f7420666960008201527f6c6c206974000000000000000000000000000000000000000000000000000000602082015250565b600061152a602583611451565b9150611535826114ce565b604082019050919050565b600060208201905081810360008301526115598161151d565b9050919050565b7f416e206f666665722063616e6e6f742062652066756c66696c6c65642074776960008201527f6365000000000000000000000000000000000000000000000000000000000000602082015250565b60006115bc602283611451565b91506115c782611560565b604082019050919050565b600060208201905081810360008301526115eb816115af565b9050919050565b7f412063616e63656c6c6564206f666665722063616e6e6f742062652066756c6660008201527f696c6c6564000000000000000000000000000000000000000000000000000000602082015250565b600061164e602583611451565b9150611659826115f2565b604082019050919050565b6000602082019050818103600083015261167d81611641565b9050919050565b7f5468652045544820616d6f756e742073686f756c64206d61746368207769746860008201527f20746865204e4654205072696365000000000000000000000000000000000000602082015250565b60006116e0602e83611451565b91506116eb82611684565b604082019050919050565b6000602082019050818103600083015261170f816116d3565b9050919050565b600061172182610f86565b915061172c83610f86565b92508282019050808211156117445761174361137c565b5b92915050565b611753816112a0565b811461175e57600080fd5b50565b6000815190506117708161174a565b92915050565b60006020828403121561178c5761178b610f81565b5b600061179a84828501611761565b91505092915050565b60006060820190506117b86000830186610ffc565b6117c56020830185610ffc565b6117d26040830184611291565b949350505050565b7f54686973207573657220686173206e6f2066756e647320746f20626520636c6160008201527f696d656400000000000000000000000000000000000000000000000000000000602082015250565b6000611836602483611451565b9150611841826117da565b604082019050919050565b6000602082019050818103600083015261186581611829565b9050919050565b7f546865206f666665722063616e206f6e6c792062652063616e63656c6564206260008201527f7920746865206f776e6572000000000000000000000000000000000000000000602082015250565b60006118c8602b83611451565b91506118d38261186c565b604082019050919050565b600060208201905081810360008301526118f7816118bb565b9050919050565b7f412066756c66696c6c6564206f666665722063616e6e6f742062652063616e6360008201527f656c6c6564000000000000000000000000000000000000000000000000000000602082015250565b600061195a602583611451565b9150611965826118fe565b604082019050919050565b600060208201905081810360008301526119898161194d565b9050919050565b7f416e206f666665722063616e6e6f742062652063616e63656c6c65642074776960008201527f6365000000000000000000000000000000000000000000000000000000000000602082015250565b60006119ec602283611451565b91506119f782611990565b604082019050919050565b60006020820190508181036000830152611a1b816119df565b905091905056fea2646970667358221220d587a7fd9d92b44389cb42e56247f524d7c4b75ce9cf6833307d7450c123dcf564736f6c63430008130033",
  "immutableReferences": {},
  "source": "// SPDX-License-Identifier: MIT\r\npragma solidity ^0.8.0;\r\n\r\nimport \"./NFTCollection.sol\";\r\n\r\ncontract NFTMarketplace {\r\n  uint count;\r\n  uint public offerCount;\r\n  mapping (uint => _Offer) public offers;\r\n  mapping (address => uint) public userFunds;\r\n  mapping(uint => Seller) public sellers;\r\n  NFTCollection nftCollection;\r\n  \r\n  struct _Offer {\r\n    uint offerId;\r\n    uint id;\r\n    address user;\r\n    uint price;\r\n    bool fulfilled;\r\n    bool cancelled;\r\n  }\r\n\r\n  struct Seller {\r\n       address userAddres;\r\n       uint balance;\r\n   }\r\n\r\n  event Offer(\r\n    uint offerId,\r\n    uint id,\r\n    address user,\r\n    uint price,\r\n    bool fulfilled,\r\n    bool cancelled\r\n  );\r\n\r\n  event OfferFilled(uint offerId, uint id, address newOwner);\r\n  event OfferCancelled(uint offerId, uint id, address owner);\r\n  event ClaimFunds(address user, uint amount);\r\n\r\n  constructor(address _nftCollection) {\r\n    nftCollection = NFTCollection(_nftCollection);\r\n  }\r\n  \r\n  function makeOffer(uint _id, uint _price) public {\r\n    nftCollection.transferFrom(msg.sender, address(this), _id);\r\n    offerCount ++;\r\n    offers[offerCount] = _Offer(offerCount, _id, msg.sender, _price, false, false);\r\n    emit Offer(offerCount, _id, msg.sender, _price, false, false);\r\n  }\r\n\r\n  function fillOffer(uint _offerId) public payable {\r\n    _Offer storage _offer = offers[_offerId];\r\n    require(_offer.offerId == _offerId, 'The offer must exist');\r\n    require(_offer.user != msg.sender, 'The owner of the offer cannot fill it');\r\n    require(!_offer.fulfilled, 'An offer cannot be fulfilled twice');\r\n    require(!_offer.cancelled, 'A cancelled offer cannot be fulfilled');\r\n    require(msg.value == _offer.price, 'The ETH amount should match with the NFT Price');\r\n    nftCollection.transferFrom(address(this), msg.sender, _offer.id);\r\n    _offer.fulfilled = true;\r\n    userFunds[_offer.user] += msg.value;\r\n    sellers[count].userAddres = _offer.user;\r\n    sellers[count].balance = msg.value;\r\n    nftCollection.setTrack(msg.sender, _offer.id);\r\n    count++;\r\n    emit OfferFilled(_offerId, _offer.id, msg.sender);\r\n  }\r\n\r\n  function cancelOffer(uint _offerId) public {\r\n    _Offer storage _offer = offers[_offerId];\r\n    require(_offer.offerId == _offerId, 'The offer must exist');\r\n    require(_offer.user == msg.sender, 'The offer can only be canceled by the owner');\r\n    require(_offer.fulfilled == false, 'A fulfilled offer cannot be cancelled');\r\n    require(_offer.cancelled == false, 'An offer cannot be cancelled twice');\r\n    nftCollection.transferFrom(address(this), msg.sender, _offer.id);\r\n    _offer.cancelled = true;\r\n    emit OfferCancelled(_offerId, _offer.id, msg.sender);\r\n  }\r\n\r\n  function claimFunds() public {\r\n    require(userFunds[msg.sender] > 0, 'This user has no funds to be claimed');\r\n    payable(msg.sender).transfer(userFunds[msg.sender]);\r\n    emit ClaimFunds(msg.sender, userFunds[msg.sender]);\r\n    userFunds[msg.sender] = 0;    \r\n  }\r\n\r\n  function getSellers() public view returns (address[] memory, uint[] memory){\r\n       address[] memory userAddress = new address[](count);\r\n       uint[] memory balances = new uint[](count);\r\n\r\n       for(uint i = 0; i < count; i++){\r\n           userAddress[i] = sellers[i].userAddres;\r\n           balances[i] = sellers[i].balance;\r\n       }\r\n       return (userAddress, balances);\r\n   }\r\n\r\n  // Fallback: reverts if Ether is sent to this smart-contract by mistake\r\n  fallback () external {\r\n    revert();\r\n  }\r\n}",
  "sourcePath": "/home/zaryab/NFTSApps/NFTUni/graphic-nft-marketplace/contracts/NFTMarketplace.sol",
  "compiler": {
    "name": "solc",
    "version": "0.8.19+commit.7dd6d404.Emscripten.clang"
  },
  "schemaVersion": "3.4.5",
  "updatedAt": "2023-04-17T09:23:14.469Z",
  "networkType": "ethereum",
  "devdoc": {
    "kind": "dev",
    "methods": {},
    "version": 1
  },
  "userdoc": {
    "kind": "user",
    "methods": {},
    "version": 1
  }
}